{
  "_format": "hh-sol-artifact-1",
  "contractName": "RealEstateToken",
  "sourceName": "contracts/RealEstateToken.sol",
  "abi": [
    {
      "inputs": [
        {
          "internalType": "address",
          "name": "initialOwner",
          "type": "address"
        }
      ],
      "stateMutability": "nonpayable",
      "type": "constructor"
    },
    {
      "inputs": [
        {
          "internalType": "address",
          "name": "sender",
          "type": "address"
        },
        {
          "internalType": "uint256",
          "name": "tokenId",
          "type": "uint256"
        },
        {
          "internalType": "address",
          "name": "owner",
          "type": "address"
        }
      ],
      "name": "ERC721IncorrectOwner",
      "type": "error"
    },
    {
      "inputs": [
        {
          "internalType": "address",
          "name": "operator",
          "type": "address"
        },
        {
          "internalType": "uint256",
          "name": "tokenId",
          "type": "uint256"
        }
      ],
      "name": "ERC721InsufficientApproval",
      "type": "error"
    },
    {
      "inputs": [
        {
          "internalType": "address",
          "name": "approver",
          "type": "address"
        }
      ],
      "name": "ERC721InvalidApprover",
      "type": "error"
    },
    {
      "inputs": [
        {
          "internalType": "address",
          "name": "operator",
          "type": "address"
        }
      ],
      "name": "ERC721InvalidOperator",
      "type": "error"
    },
    {
      "inputs": [
        {
          "internalType": "address",
          "name": "owner",
          "type": "address"
        }
      ],
      "name": "ERC721InvalidOwner",
      "type": "error"
    },
    {
      "inputs": [
        {
          "internalType": "address",
          "name": "receiver",
          "type": "address"
        }
      ],
      "name": "ERC721InvalidReceiver",
      "type": "error"
    },
    {
      "inputs": [
        {
          "internalType": "address",
          "name": "sender",
          "type": "address"
        }
      ],
      "name": "ERC721InvalidSender",
      "type": "error"
    },
    {
      "inputs": [
        {
          "internalType": "uint256",
          "name": "tokenId",
          "type": "uint256"
        }
      ],
      "name": "ERC721NonexistentToken",
      "type": "error"
    },
    {
      "inputs": [
        {
          "internalType": "address",
          "name": "owner",
          "type": "address"
        }
      ],
      "name": "OwnableInvalidOwner",
      "type": "error"
    },
    {
      "inputs": [
        {
          "internalType": "address",
          "name": "account",
          "type": "address"
        }
      ],
      "name": "OwnableUnauthorizedAccount",
      "type": "error"
    },
    {
      "anonymous": false,
      "inputs": [
        {
          "indexed": true,
          "internalType": "address",
          "name": "owner",
          "type": "address"
        },
        {
          "indexed": true,
          "internalType": "address",
          "name": "approved",
          "type": "address"
        },
        {
          "indexed": true,
          "internalType": "uint256",
          "name": "tokenId",
          "type": "uint256"
        }
      ],
      "name": "Approval",
      "type": "event"
    },
    {
      "anonymous": false,
      "inputs": [
        {
          "indexed": true,
          "internalType": "address",
          "name": "owner",
          "type": "address"
        },
        {
          "indexed": true,
          "internalType": "address",
          "name": "operator",
          "type": "address"
        },
        {
          "indexed": false,
          "internalType": "bool",
          "name": "approved",
          "type": "bool"
        }
      ],
      "name": "ApprovalForAll",
      "type": "event"
    },
    {
      "anonymous": false,
      "inputs": [
        {
          "indexed": false,
          "internalType": "uint256",
          "name": "_fromTokenId",
          "type": "uint256"
        },
        {
          "indexed": false,
          "internalType": "uint256",
          "name": "_toTokenId",
          "type": "uint256"
        }
      ],
      "name": "BatchMetadataUpdate",
      "type": "event"
    },
    {
      "anonymous": false,
      "inputs": [
        {
          "indexed": false,
          "internalType": "uint256",
          "name": "_tokenId",
          "type": "uint256"
        }
      ],
      "name": "MetadataUpdate",
      "type": "event"
    },
    {
      "anonymous": false,
      "inputs": [
        {
          "indexed": true,
          "internalType": "address",
          "name": "previousOwner",
          "type": "address"
        },
        {
          "indexed": true,
          "internalType": "address",
          "name": "newOwner",
          "type": "address"
        }
      ],
      "name": "OwnershipTransferred",
      "type": "event"
    },
    {
      "anonymous": false,
      "inputs": [
        {
          "indexed": true,
          "internalType": "uint256",
          "name": "tokenId",
          "type": "uint256"
        },
        {
          "indexed": true,
          "internalType": "address",
          "name": "owner",
          "type": "address"
        },
        {
          "indexed": false,
          "internalType": "string",
          "name": "location",
          "type": "string"
        },
        {
          "indexed": false,
          "internalType": "uint256",
          "name": "value",
          "type": "uint256"
        },
        {
          "indexed": false,
          "internalType": "string",
          "name": "propertyType",
          "type": "string"
        }
      ],
      "name": "PropertyMinted",
      "type": "event"
    },
    {
      "anonymous": false,
      "inputs": [
        {
          "indexed": true,
          "internalType": "uint256",
          "name": "tokenId",
          "type": "uint256"
        },
        {
          "indexed": false,
          "internalType": "address",
          "name": "from",
          "type": "address"
        },
        {
          "indexed": false,
          "internalType": "address",
          "name": "to",
          "type": "address"
        }
      ],
      "name": "PropertyTransferred",
      "type": "event"
    },
    {
      "anonymous": false,
      "inputs": [
        {
          "indexed": true,
          "internalType": "uint256",
          "name": "tokenId",
          "type": "uint256"
        },
        {
          "indexed": false,
          "internalType": "uint256",
          "name": "newValue",
          "type": "uint256"
        },
        {
          "indexed": false,
          "internalType": "bool",
          "name": "isForSale",
          "type": "bool"
        }
      ],
      "name": "PropertyUpdated",
      "type": "event"
    },
    {
      "anonymous": false,
      "inputs": [
        {
          "indexed": true,
          "internalType": "address",
          "name": "from",
          "type": "address"
        },
        {
          "indexed": true,
          "internalType": "address",
          "name": "to",
          "type": "address"
        },
        {
          "indexed": true,
          "internalType": "uint256",
          "name": "tokenId",
          "type": "uint256"
        }
      ],
      "name": "Transfer",
      "type": "event"
    },
    {
      "inputs": [
        {
          "internalType": "address",
          "name": "to",
          "type": "address"
        },
        {
          "internalType": "uint256",
          "name": "tokenId",
          "type": "uint256"
        }
      ],
      "name": "approve",
      "outputs": [],
      "stateMutability": "nonpayable",
      "type": "function"
    },
    {
      "inputs": [
        {
          "internalType": "address",
          "name": "owner",
          "type": "address"
        }
      ],
      "name": "balanceOf",
      "outputs": [
        {
          "internalType": "uint256",
          "name": "",
          "type": "uint256"
        }
      ],
      "stateMutability": "view",
      "type": "function"
    },
    {
      "inputs": [],
      "name": "getAllProperties",
      "outputs": [
        {
          "components": [
            {
              "internalType": "uint256",
              "name": "tokenId",
              "type": "uint256"
            },
            {
              "internalType": "string",
              "name": "location",
              "type": "string"
            },
            {
              "internalType": "uint256",
              "name": "area",
              "type": "uint256"
            },
            {
              "internalType": "uint256",
              "name": "value",
              "type": "uint256"
            },
            {
              "internalType": "string",
              "name": "propertyType",
              "type": "string"
            },
            {
              "internalType": "uint256",
              "name": "yearBuilt",
              "type": "uint256"
            },
            {
              "internalType": "address",
              "name": "currentOwner",
              "type": "address"
            },
            {
              "internalType": "bool",
              "name": "isForSale",
              "type": "bool"
            },
            {
              "internalType": "uint256",
              "name": "createdAt",
              "type": "uint256"
            }
          ],
          "internalType": "struct RealEstateToken.Property[]",
          "name": "",
          "type": "tuple[]"
        }
      ],
      "stateMutability": "view",
      "type": "function"
    },
    {
      "inputs": [
        {
          "internalType": "uint256",
          "name": "tokenId",
          "type": "uint256"
        }
      ],
      "name": "getApproved",
      "outputs": [
        {
          "internalType": "address",
          "name": "",
          "type": "address"
        }
      ],
      "stateMutability": "view",
      "type": "function"
    },
    {
      "inputs": [
        {
          "internalType": "address",
          "name": "owner",
          "type": "address"
        }
      ],
      "name": "getOwnedPropertiesCount",
      "outputs": [
        {
          "internalType": "uint256",
          "name": "",
          "type": "uint256"
        }
      ],
      "stateMutability": "view",
      "type": "function"
    },
    {
      "inputs": [
        {
          "internalType": "address",
          "name": "owner",
          "type": "address"
        }
      ],
      "name": "getPropertiesByOwner",
      "outputs": [
        {
          "components": [
            {
              "internalType": "uint256",
              "name": "tokenId",
              "type": "uint256"
            },
            {
              "internalType": "string",
              "name": "location",
              "type": "string"
            },
            {
              "internalType": "uint256",
              "name": "area",
              "type": "uint256"
            },
            {
              "internalType": "uint256",
              "name": "value",
              "type": "uint256"
            },
            {
              "internalType": "string",
              "name": "propertyType",
              "type": "string"
            },
            {
              "internalType": "uint256",
              "name": "yearBuilt",
              "type": "uint256"
            },
            {
              "internalType": "address",
              "name": "currentOwner",
              "type": "address"
            },
            {
              "internalType": "bool",
              "name": "isForSale",
              "type": "bool"
            },
            {
              "internalType": "uint256",
              "name": "createdAt",
              "type": "uint256"
            }
          ],
          "internalType": "struct RealEstateToken.Property[]",
          "name": "",
          "type": "tuple[]"
        }
      ],
      "stateMutability": "view",
      "type": "function"
    },
    {
      "inputs": [],
      "name": "getPropertiesCount",
      "outputs": [
        {
          "internalType": "uint256",
          "name": "",
          "type": "uint256"
        }
      ],
      "stateMutability": "view",
      "type": "function"
    },
    {
      "inputs": [],
      "name": "getPropertiesForSale",
      "outputs": [
        {
          "components": [
            {
              "internalType": "uint256",
              "name": "tokenId",
              "type": "uint256"
            },
            {
              "internalType": "string",
              "name": "location",
              "type": "string"
            },
            {
              "internalType": "uint256",
              "name": "area",
              "type": "uint256"
            },
            {
              "internalType": "uint256",
              "name": "value",
              "type": "uint256"
            },
            {
              "internalType": "string",
              "name": "propertyType",
              "type": "string"
            },
            {
              "internalType": "uint256",
              "name": "yearBuilt",
              "type": "uint256"
            },
            {
              "internalType": "address",
              "name": "currentOwner",
              "type": "address"
            },
            {
              "internalType": "bool",
              "name": "isForSale",
              "type": "bool"
            },
            {
              "internalType": "uint256",
              "name": "createdAt",
              "type": "uint256"
            }
          ],
          "internalType": "struct RealEstateToken.Property[]",
          "name": "",
          "type": "tuple[]"
        }
      ],
      "stateMutability": "view",
      "type": "function"
    },
    {
      "inputs": [
        {
          "internalType": "uint256",
          "name": "tokenId",
          "type": "uint256"
        }
      ],
      "name": "getProperty",
      "outputs": [
        {
          "components": [
            {
              "internalType": "uint256",
              "name": "tokenId",
              "type": "uint256"
            },
            {
              "internalType": "string",
              "name": "location",
              "type": "string"
            },
            {
              "internalType": "uint256",
              "name": "area",
              "type": "uint256"
            },
            {
              "internalType": "uint256",
              "name": "value",
              "type": "uint256"
            },
            {
              "internalType": "string",
              "name": "propertyType",
              "type": "string"
            },
            {
              "internalType": "uint256",
              "name": "yearBuilt",
              "type": "uint256"
            },
            {
              "internalType": "address",
              "name": "currentOwner",
              "type": "address"
            },
            {
              "internalType": "bool",
              "name": "isForSale",
              "type": "bool"
            },
            {
              "internalType": "uint256",
              "name": "createdAt",
              "type": "uint256"
            }
          ],
          "internalType": "struct RealEstateToken.Property",
          "name": "",
          "type": "tuple"
        }
      ],
      "stateMutability": "view",
      "type": "function"
    },
    {
      "inputs": [
        {
          "internalType": "address",
          "name": "owner",
          "type": "address"
        },
        {
          "internalType": "address",
          "name": "operator",
          "type": "address"
        }
      ],
      "name": "isApprovedForAll",
      "outputs": [
        {
          "internalType": "bool",
          "name": "",
          "type": "bool"
        }
      ],
      "stateMutability": "view",
      "type": "function"
    },
    {
      "inputs": [
        {
          "internalType": "address",
          "name": "to",
          "type": "address"
        },
        {
          "internalType": "string",
          "name": "tokenURI",
          "type": "string"
        },
        {
          "internalType": "string",
          "name": "location",
          "type": "string"
        },
        {
          "internalType": "uint256",
          "name": "area",
          "type": "uint256"
        },
        {
          "internalType": "uint256",
          "name": "value",
          "type": "uint256"
        },
        {
          "internalType": "string",
          "name": "propertyType",
          "type": "string"
        },
        {
          "internalType": "uint256",
          "name": "yearBuilt",
          "type": "uint256"
        }
      ],
      "name": "mintProperty",
      "outputs": [
        {
          "internalType": "uint256",
          "name": "",
          "type": "uint256"
        }
      ],
      "stateMutability": "nonpayable",
      "type": "function"
    },
    {
      "inputs": [],
      "name": "name",
      "outputs": [
        {
          "internalType": "string",
          "name": "",
          "type": "string"
        }
      ],
      "stateMutability": "view",
      "type": "function"
    },
    {
      "inputs": [],
      "name": "nextTokenId",
      "outputs": [
        {
          "internalType": "uint256",
          "name": "",
          "type": "uint256"
        }
      ],
      "stateMutability": "view",
      "type": "function"
    },
    {
      "inputs": [],
      "name": "owner",
      "outputs": [
        {
          "internalType": "address",
          "name": "",
          "type": "address"
        }
      ],
      "stateMutability": "view",
      "type": "function"
    },
    {
      "inputs": [
        {
          "internalType": "uint256",
          "name": "tokenId",
          "type": "uint256"
        }
      ],
      "name": "ownerOf",
      "outputs": [
        {
          "internalType": "address",
          "name": "",
          "type": "address"
        }
      ],
      "stateMutability": "view",
      "type": "function"
    },
    {
      "inputs": [
        {
          "internalType": "uint256",
          "name": "",
          "type": "uint256"
        }
      ],
      "name": "properties",
      "outputs": [
        {
          "internalType": "uint256",
          "name": "tokenId",
          "type": "uint256"
        },
        {
          "internalType": "string",
          "name": "location",
          "type": "string"
        },
        {
          "internalType": "uint256",
          "name": "area",
          "type": "uint256"
        },
        {
          "internalType": "uint256",
          "name": "value",
          "type": "uint256"
        },
        {
          "internalType": "string",
          "name": "propertyType",
          "type": "string"
        },
        {
          "internalType": "uint256",
          "name": "yearBuilt",
          "type": "uint256"
        },
        {
          "internalType": "address",
          "name": "currentOwner",
          "type": "address"
        },
        {
          "internalType": "bool",
          "name": "isForSale",
          "type": "bool"
        },
        {
          "internalType": "uint256",
          "name": "createdAt",
          "type": "uint256"
        }
      ],
      "stateMutability": "view",
      "type": "function"
    },
    {
      "inputs": [],
      "name": "renounceOwnership",
      "outputs": [],
      "stateMutability": "nonpayable",
      "type": "function"
    },
    {
      "inputs": [
        {
          "internalType": "address",
          "name": "from",
          "type": "address"
        },
        {
          "internalType": "address",
          "name": "to",
          "type": "address"
        },
        {
          "internalType": "uint256",
          "name": "tokenId",
          "type": "uint256"
        }
      ],
      "name": "safeTransferFrom",
      "outputs": [],
      "stateMutability": "nonpayable",
      "type": "function"
    },
    {
      "inputs": [
        {
          "internalType": "address",
          "name": "from",
          "type": "address"
        },
        {
          "internalType": "address",
          "name": "to",
          "type": "address"
        },
        {
          "internalType": "uint256",
          "name": "tokenId",
          "type": "uint256"
        },
        {
          "internalType": "bytes",
          "name": "data",
          "type": "bytes"
        }
      ],
      "name": "safeTransferFrom",
      "outputs": [],
      "stateMutability": "nonpayable",
      "type": "function"
    },
    {
      "inputs": [
        {
          "internalType": "address",
          "name": "operator",
          "type": "address"
        },
        {
          "internalType": "bool",
          "name": "approved",
          "type": "bool"
        }
      ],
      "name": "setApprovalForAll",
      "outputs": [],
      "stateMutability": "nonpayable",
      "type": "function"
    },
    {
      "inputs": [
        {
          "internalType": "bytes4",
          "name": "interfaceId",
          "type": "bytes4"
        }
      ],
      "name": "supportsInterface",
      "outputs": [
        {
          "internalType": "bool",
          "name": "",
          "type": "bool"
        }
      ],
      "stateMutability": "view",
      "type": "function"
    },
    {
      "inputs": [],
      "name": "symbol",
      "outputs": [
        {
          "internalType": "string",
          "name": "",
          "type": "string"
        }
      ],
      "stateMutability": "view",
      "type": "function"
    },
    {
      "inputs": [
        {
          "internalType": "uint256",
          "name": "tokenId",
          "type": "uint256"
        }
      ],
      "name": "toggleForSale",
      "outputs": [],
      "stateMutability": "nonpayable",
      "type": "function"
    },
    {
      "inputs": [
        {
          "internalType": "uint256",
          "name": "tokenId",
          "type": "uint256"
        }
      ],
      "name": "tokenURI",
      "outputs": [
        {
          "internalType": "string",
          "name": "",
          "type": "string"
        }
      ],
      "stateMutability": "view",
      "type": "function"
    },
    {
      "inputs": [
        {
          "internalType": "address",
          "name": "from",
          "type": "address"
        },
        {
          "internalType": "address",
          "name": "to",
          "type": "address"
        },
        {
          "internalType": "uint256",
          "name": "tokenId",
          "type": "uint256"
        }
      ],
      "name": "transferFrom",
      "outputs": [],
      "stateMutability": "nonpayable",
      "type": "function"
    },
    {
      "inputs": [
        {
          "internalType": "address",
          "name": "newOwner",
          "type": "address"
        }
      ],
      "name": "transferOwnership",
      "outputs": [],
      "stateMutability": "nonpayable",
      "type": "function"
    },
    {
      "inputs": [
        {
          "internalType": "uint256",
          "name": "tokenId",
          "type": "uint256"
        },
        {
          "internalType": "uint256",
          "name": "newValue",
          "type": "uint256"
        }
      ],
      "name": "updatePropertyValue",
      "outputs": [],
      "stateMutability": "nonpayable",
      "type": "function"
    }
  ],
  "bytecode": "0x608060405234801561001057600080fd5b50604051614dc6380380614dc683398181016040528101906100329190610272565b806040518060400160405280600f81526020017f5265616c457374617465546f6b656e00000000000000000000000000000000008152506040518060400160405280600381526020017f524554000000000000000000000000000000000000000000000000000000000081525081600090816100ae91906104ef565b5080600190816100be91906104ef565b505050600073ffffffffffffffffffffffffffffffffffffffff168173ffffffffffffffffffffffffffffffffffffffff16036101335760006040517f1e4fbdf700000000000000000000000000000000000000000000000000000000815260040161012a91906105d0565b60405180910390fd5b6101428161014960201b60201c565b50506105eb565b6000600760009054906101000a900473ffffffffffffffffffffffffffffffffffffffff16905081600760006101000a81548173ffffffffffffffffffffffffffffffffffffffff021916908373ffffffffffffffffffffffffffffffffffffffff1602179055508173ffffffffffffffffffffffffffffffffffffffff168173ffffffffffffffffffffffffffffffffffffffff167f8be0079c531659141344cd1fd0a4f28419497f9722a3daafe3b4186f6b6457e060405160405180910390a35050565b600080fd5b600073ffffffffffffffffffffffffffffffffffffffff82169050919050565b600061023f82610214565b9050919050565b61024f81610234565b811461025a57600080fd5b50565b60008151905061026c81610246565b92915050565b6000602082840312156102885761028761020f565b5b60006102968482850161025d565b91505092915050565b600081519050919050565b7f4e487b7100000000000000000000000000000000000000000000000000000000600052604160045260246000fd5b7f4e487b7100000000000000000000000000000000000000000000000000000000600052602260045260246000fd5b6000600282049050600182168061032057607f821691505b602082108103610333576103326102d9565b5b50919050565b60008190508160005260206000209050919050565b60006020601f8301049050919050565b600082821b905092915050565b60006008830261039b7fffffffffffffffffffffffffffffffffffffffffffffffffffffffffffffffff8261035e565b6103a5868361035e565b95508019841693508086168417925050509392505050565b6000819050919050565b6000819050919050565b60006103ec6103e76103e2846103bd565b6103c7565b6103bd565b9050919050565b6000819050919050565b610406836103d1565b61041a610412826103f3565b84845461036b565b825550505050565b600090565b61042f610422565b61043a8184846103fd565b505050565b5b8181101561045e57610453600082610427565b600181019050610440565b5050565b601f8211156104a35761047481610339565b61047d8461034e565b8101602085101561048c578190505b6104a06104988561034e565b83018261043f565b50505b505050565b600082821c905092915050565b60006104c6600019846008026104a8565b1980831691505092915050565b60006104df83836104b5565b9150826002028217905092915050565b6104f88261029f565b67ffffffffffffffff811115610511576105106102aa565b5b61051b8254610308565b610526828285610462565b600060209050601f8311600181146105595760008415610547578287015190505b61055185826104d3565b8655506105b9565b601f19841661056786610339565b60005b8281101561058f5784890151825560018201915060208501945060208101905061056a565b868310156105ac57848901516105a8601f8916826104b5565b8355505b6001600288020188555050505b505050505050565b6105ca81610234565b82525050565b60006020820190506105e560008301846105c1565b92915050565b6147cc806105fa6000396000f3fe608060405234801561001057600080fd5b50600436106101a95760003560e01c8063715018a6116100f9578063a32018b911610097578063c9bdbad311610071578063c9bdbad3146104ce578063e985e9c5146104fe578063f2fde38b1461052e578063f7b108081461054a576101a9565b8063a32018b914610466578063b88d4fde14610482578063c87b56dd1461049e576101a9565b806395d89b41116100d357806395d89b41146103e05780639b7c4b4b146103fe5780639fcb27481461041a578063a22cb4651461044a576101a9565b8063715018a61461039a57806375794a3c146103a45780638da5cb5b146103c2576101a9565b806332665ffb11610166578063480777b111610140578063480777b1146102ec5780635442bb141461030a5780636352211e1461033a57806370a082311461036a576101a9565b806332665ffb146102825780633d51402c146102b257806342842e0e146102d0576101a9565b806301ffc9a7146101ae57806306fdde03146101de578063081812fc146101fc578063095ea7b31461022c578063174000bc1461024857806323b872dd14610266575b600080fd5b6101c860048036038101906101c39190613366565b610582565b6040516101d591906133ae565b60405180910390f35b6101e66105e3565b6040516101f39190613459565b60405180910390f35b610216600480360381019061021191906134b1565b610675565b604051610223919061351f565b60405180910390f35b61024660048036038101906102419190613566565b610691565b005b6102506106a7565b60405161025d91906135b5565b60405180910390f35b610280600480360381019061027b91906135d0565b6106b1565b005b61029c600480360381019061029791906134b1565b6107b3565b6040516102a99190613766565b60405180910390f35b6102ba6109f5565b6040516102c79190613916565b60405180910390f35b6102ea60048036038101906102e591906135d0565b610c77565b005b6102f4610c97565b6040516103019190613916565b60405180910390f35b610324600480360381019061031f9190613a6d565b610fa6565b60405161033191906135b5565b60405180910390f35b610354600480360381019061034f91906134b1565b611359565b604051610361919061351f565b60405180910390f35b610384600480360381019061037f9190613b63565b61136b565b60405161039191906135b5565b60405180910390f35b6103a2611425565b005b6103ac611439565b6040516103b991906135b5565b60405180910390f35b6103ca61143f565b6040516103d7919061351f565b60405180910390f35b6103e8611469565b6040516103f59190613459565b60405180910390f35b61041860048036038101906104139190613b90565b6114fb565b005b610434600480360381019061042f9190613b63565b6116c4565b6040516104419190613916565b60405180910390f35b610464600480360381019061045f9190613bfc565b6119f3565b005b610480600480360381019061047b91906134b1565b611a09565b005b61049c60048036038101906104979190613cdd565b611b7a565b005b6104b860048036038101906104b391906134b1565b611b9f565b6040516104c59190613459565b60405180910390f35b6104e860048036038101906104e39190613b63565b611cb2565b6040516104f591906135b5565b60405180910390f35b61051860048036038101906105139190613d60565b611cfe565b60405161052591906133ae565b60405180910390f35b61054860048036038101906105439190613b63565b611d92565b005b610564600480360381019061055f91906134b1565b611e18565b60405161057999989796959493929190613da0565b60405180910390f35b6000634906490660e01b7bffffffffffffffffffffffffffffffffffffffffffffffffffffffff1916827bffffffffffffffffffffffffffffffffffffffffffffffffffffffff191614806105dc57506105db82611fa3565b5b9050919050565b6060600080546105f290613e6a565b80601f016020809104026020016040519081016040528092919081815260200182805461061e90613e6a565b801561066b5780601f106106405761010080835404028352916020019161066b565b820191906000526020600020905b81548152906001019060200180831161064e57829003601f168201915b5050505050905090565b600061068082612085565b5061068a8261210d565b9050919050565b6106a3828261069e61214a565b612152565b5050565b6000600854905090565b600073ffffffffffffffffffffffffffffffffffffffff168273ffffffffffffffffffffffffffffffffffffffff16036107235760006040517f64a0ae9200000000000000000000000000000000000000000000000000000000815260040161071a919061351f565b60405180910390fd5b6000610737838361073261214a565b612164565b90508373ffffffffffffffffffffffffffffffffffffffff168173ffffffffffffffffffffffffffffffffffffffff16146107ad578382826040517f64283d7b0000000000000000000000000000000000000000000000000000000081526004016107a493929190613e9b565b60405180910390fd5b50505050565b6107bb613296565b60006009600084815260200190815260200160002060405180610120016040529081600082015481526020016001820180546107f690613e6a565b80601f016020809104026020016040519081016040528092919081815260200182805461082290613e6a565b801561086f5780601f106108445761010080835404028352916020019161086f565b820191906000526020600020905b81548152906001019060200180831161085257829003601f168201915b50505050508152602001600282015481526020016003820154815260200160048201805461089c90613e6a565b80601f01602080910402602001604051908101604052809291908181526020018280546108c890613e6a565b80156109155780601f106108ea57610100808354040283529160200191610915565b820191906000526020600020905b8154815290600101906020018083116108f857829003601f168201915b50505050508152602001600582015481526020016006820160009054906101000a900473ffffffffffffffffffffffffffffffffffffffff1673ffffffffffffffffffffffffffffffffffffffff1673ffffffffffffffffffffffffffffffffffffffff1681526020016006820160149054906101000a900460ff16151515158152602001600782015481525050905060008160000151036109ec576040517f08c379a00000000000000000000000000000000000000000000000000000000081526004016109e390613f1e565b60405180910390fd5b80915050919050565b6060600060085467ffffffffffffffff811115610a1557610a14613942565b5b604051908082528060200260200182016040528015610a4e57816020015b610a3b613296565b815260200190600190039081610a335790505b50905060005b600854811015610c6f57600960008281526020019081526020016000206040518061012001604052908160008201548152602001600182018054610a9790613e6a565b80601f0160208091040260200160405190810160405280929190818152602001828054610ac390613e6a565b8015610b105780601f10610ae557610100808354040283529160200191610b10565b820191906000526020600020905b815481529060010190602001808311610af357829003601f168201915b505050505081526020016002820154815260200160038201548152602001600482018054610b3d90613e6a565b80601f0160208091040260200160405190810160405280929190818152602001828054610b6990613e6a565b8015610bb65780601f10610b8b57610100808354040283529160200191610bb6565b820191906000526020600020905b815481529060010190602001808311610b9957829003601f168201915b50505050508152602001600582015481526020016006820160009054906101000a900473ffffffffffffffffffffffffffffffffffffffff1673ffffffffffffffffffffffffffffffffffffffff1673ffffffffffffffffffffffffffffffffffffffff1681526020016006820160149054906101000a900460ff16151515158152602001600782015481525050828281518110610c5757610c56613f3e565b5b60200260200101819052508080600101915050610a54565b508091505090565b610c9283838360405180602001604052806000815250611b7a565b505050565b60606000805b600854811015610cec576009600082815260200190815260200160002060060160149054906101000a900460ff1615610cdf578180610cdb90613f9c565b9250505b8080600101915050610c9d565b5060008167ffffffffffffffff811115610d0957610d08613942565b5b604051908082528060200260200182016040528015610d4257816020015b610d2f613296565b815260200190600190039081610d275790505b5090506000805b600854811015610f9c576009600082815260200190815260200160002060060160149054906101000a900460ff1615610f8f57600960008281526020019081526020016000206040518061012001604052908160008201548152602001600182018054610db590613e6a565b80601f0160208091040260200160405190810160405280929190818152602001828054610de190613e6a565b8015610e2e5780601f10610e0357610100808354040283529160200191610e2e565b820191906000526020600020905b815481529060010190602001808311610e1157829003601f168201915b505050505081526020016002820154815260200160038201548152602001600482018054610e5b90613e6a565b80601f0160208091040260200160405190810160405280929190818152602001828054610e8790613e6a565b8015610ed45780601f10610ea957610100808354040283529160200191610ed4565b820191906000526020600020905b815481529060010190602001808311610eb757829003601f168201915b50505050508152602001600582015481526020016006820160009054906101000a900473ffffffffffffffffffffffffffffffffffffffff1673ffffffffffffffffffffffffffffffffffffffff1673ffffffffffffffffffffffffffffffffffffffff1681526020016006820160149054906101000a900460ff16151515158152602001600782015481525050838381518110610f7557610f74613f3e565b5b60200260200101819052508180610f8b90613f9c565b9250505b8080600101915050610d49565b5081935050505090565b6000610fb06123e6565b600a87604051610fc09190614020565b908152602001604051809103902060009054906101000a900460ff161561101c576040517f08c379a000000000000000000000000000000000000000000000000000000000815260040161101390614083565b60405180910390fd5b6000851161105f576040517f08c379a0000000000000000000000000000000000000000000000000000000008152600401611056906140ef565b60405180910390fd5b600084116110a2576040517f08c379a00000000000000000000000000000000000000000000000000000000081526004016110999061415b565b60405180910390fd5b610708821180156110b35750428211155b6110f2576040517f08c379a00000000000000000000000000000000000000000000000000000000081526004016110e9906141c7565b60405180910390fd5b60006008549050611103898261246d565b61110d818961248b565b6040518061012001604052808281526020018881526020018781526020018681526020018581526020018481526020018a73ffffffffffffffffffffffffffffffffffffffff16815260200160001515815260200142815250600960008381526020019081526020016000206000820151816000015560208201518160010190816111989190614393565b50604082015181600201556060820151816003015560808201518160040190816111c29190614393565b5060a0820151816005015560c08201518160060160006101000a81548173ffffffffffffffffffffffffffffffffffffffff021916908373ffffffffffffffffffffffffffffffffffffffff16021790555060e08201518160060160146101000a81548160ff0219169083151502179055506101008201518160070155905050600b60008a73ffffffffffffffffffffffffffffffffffffffff1673ffffffffffffffffffffffffffffffffffffffff1681526020019081526020016000208190806001815401808255809150506001900390600052602060002001600090919091909150556001600a896040516112ba9190614020565b908152602001604051809103902060006101000a81548160ff021916908315150217905550600860008154809291906112f290613f9c565b91905055508873ffffffffffffffffffffffffffffffffffffffff16817fea018cdcab50b55c4f7a083c3772bd3450d3fc679157ea511245933564e91f3a89888860405161134293929190614465565b60405180910390a380915050979650505050505050565b600061136482612085565b9050919050565b60008073ffffffffffffffffffffffffffffffffffffffff168273ffffffffffffffffffffffffffffffffffffffff16036113de5760006040517f89c62b640000000000000000000000000000000000000000000000000000000081526004016113d5919061351f565b60405180910390fd5b600360008373ffffffffffffffffffffffffffffffffffffffff1673ffffffffffffffffffffffffffffffffffffffff168152602001908152602001600020549050919050565b61142d6123e6565b61143760006124e7565b565b60085481565b6000600760009054906101000a900473ffffffffffffffffffffffffffffffffffffffff16905090565b60606001805461147890613e6a565b80601f01602080910402602001604051908101604052809291908181526020018280546114a490613e6a565b80156114f15780601f106114c6576101008083540402835291602001916114f1565b820191906000526020600020905b8154815290600101906020018083116114d457829003601f168201915b5050505050905090565b60006009600084815260200190815260200160002090506000816000015403611559576040517f08c379a000000000000000000000000000000000000000000000000000000000815260040161155090613f1e565b60405180910390fd5b6000821161159c576040517f08c379a00000000000000000000000000000000000000000000000000000000081526004016115939061415b565b60405180910390fd5b8060060160009054906101000a900473ffffffffffffffffffffffffffffffffffffffff1673ffffffffffffffffffffffffffffffffffffffff163373ffffffffffffffffffffffffffffffffffffffff16148061162c57506115fd61143f565b73ffffffffffffffffffffffffffffffffffffffff163373ffffffffffffffffffffffffffffffffffffffff16145b61166b576040517f08c379a0000000000000000000000000000000000000000000000000000000008152600401611662906144f6565b60405180910390fd5b818160030181905550827f0ebe5c59e5dc700dcb789c33b0e9bd5e015ef98b751dfa5b083e9d4c520b89e4838360060160149054906101000a900460ff166040516116b7929190614516565b60405180910390a2505050565b60606000600b60008473ffffffffffffffffffffffffffffffffffffffff1673ffffffffffffffffffffffffffffffffffffffff16815260200190815260200160002080548060200260200160405190810160405280929190818152602001828054801561175157602002820191906000526020600020905b81548152602001906001019080831161173d575b505050505090506000815167ffffffffffffffff81111561177557611774613942565b5b6040519080825280602002602001820160405280156117ae57816020015b61179b613296565b8152602001906001900390816117935790505b50905060005b82518110156119e857600960008483815181106117d4576117d3613f3e565b5b60200260200101518152602001908152602001600020604051806101200160405290816000820154815260200160018201805461181090613e6a565b80601f016020809104026020016040519081016040528092919081815260200182805461183c90613e6a565b80156118895780601f1061185e57610100808354040283529160200191611889565b820191906000526020600020905b81548152906001019060200180831161186c57829003601f168201915b5050505050815260200160028201548152602001600382015481526020016004820180546118b690613e6a565b80601f01602080910402602001604051908101604052809291908181526020018280546118e290613e6a565b801561192f5780601f106119045761010080835404028352916020019161192f565b820191906000526020600020905b81548152906001019060200180831161191257829003601f168201915b50505050508152602001600582015481526020016006820160009054906101000a900473ffffffffffffffffffffffffffffffffffffffff1673ffffffffffffffffffffffffffffffffffffffff1673ffffffffffffffffffffffffffffffffffffffff1681526020016006820160149054906101000a900460ff161515151581526020016007820154815250508282815181106119d0576119cf613f3e565b5b602002602001018190525080806001019150506117b4565b508092505050919050565b611a056119fe61214a565b83836125ad565b5050565b60006009600083815260200190815260200160002090506000816000015403611a67576040517f08c379a0000000000000000000000000000000000000000000000000000000008152600401611a5e90613f1e565b60405180910390fd5b8060060160009054906101000a900473ffffffffffffffffffffffffffffffffffffffff1673ffffffffffffffffffffffffffffffffffffffff163373ffffffffffffffffffffffffffffffffffffffff1614611af9576040517f08c379a0000000000000000000000000000000000000000000000000000000008152600401611af09061458b565b60405180910390fd5b8060060160149054906101000a900460ff16158160060160146101000a81548160ff021916908315150217905550817f0ebe5c59e5dc700dcb789c33b0e9bd5e015ef98b751dfa5b083e9d4c520b89e482600301548360060160149054906101000a900460ff16604051611b6e929190614516565b60405180910390a25050565b611b858484846106b1565b611b99611b9061214a565b8585858561271c565b50505050565b6060611baa82612085565b506000600660008481526020019081526020016000208054611bcb90613e6a565b80601f0160208091040260200160405190810160405280929190818152602001828054611bf790613e6a565b8015611c445780601f10611c1957610100808354040283529160200191611c44565b820191906000526020600020905b815481529060010190602001808311611c2757829003601f168201915b505050505090506000611c556128cd565b90506000815103611c6a578192505050611cad565b600082511115611c9f578082604051602001611c879291906145ab565b60405160208183030381529060405292505050611cad565b611ca8846128e4565b925050505b919050565b6000600b60008373ffffffffffffffffffffffffffffffffffffffff1673ffffffffffffffffffffffffffffffffffffffff168152602001908152602001600020805490509050919050565b6000600560008473ffffffffffffffffffffffffffffffffffffffff1673ffffffffffffffffffffffffffffffffffffffff16815260200190815260200160002060008373ffffffffffffffffffffffffffffffffffffffff1673ffffffffffffffffffffffffffffffffffffffff16815260200190815260200160002060009054906101000a900460ff16905092915050565b611d9a6123e6565b600073ffffffffffffffffffffffffffffffffffffffff168173ffffffffffffffffffffffffffffffffffffffff1603611e0c5760006040517f1e4fbdf7000000000000000000000000000000000000000000000000000000008152600401611e03919061351f565b60405180910390fd5b611e15816124e7565b50565b6009602052806000526040600020600091509050806000015490806001018054611e4190613e6a565b80601f0160208091040260200160405190810160405280929190818152602001828054611e6d90613e6a565b8015611eba5780601f10611e8f57610100808354040283529160200191611eba565b820191906000526020600020905b815481529060010190602001808311611e9d57829003601f168201915b505050505090806002015490806003015490806004018054611edb90613e6a565b80601f0160208091040260200160405190810160405280929190818152602001828054611f0790613e6a565b8015611f545780601f10611f2957610100808354040283529160200191611f54565b820191906000526020600020905b815481529060010190602001808311611f3757829003601f168201915b5050505050908060050154908060060160009054906101000a900473ffffffffffffffffffffffffffffffffffffffff16908060060160149054906101000a900460ff16908060070154905089565b60007f80ac58cd000000000000000000000000000000000000000000000000000000007bffffffffffffffffffffffffffffffffffffffffffffffffffffffff1916827bffffffffffffffffffffffffffffffffffffffffffffffffffffffff1916148061206e57507f5b5e139f000000000000000000000000000000000000000000000000000000007bffffffffffffffffffffffffffffffffffffffffffffffffffffffff1916827bffffffffffffffffffffffffffffffffffffffffffffffffffffffff1916145b8061207e575061207d8261294d565b5b9050919050565b600080612091836129b7565b9050600073ffffffffffffffffffffffffffffffffffffffff168173ffffffffffffffffffffffffffffffffffffffff160361210457826040517f7e2732890000000000000000000000000000000000000000000000000000000081526004016120fb91906135b5565b60405180910390fd5b80915050919050565b60006004600083815260200190815260200160002060009054906101000a900473ffffffffffffffffffffffffffffffffffffffff169050919050565b600033905090565b61215f83838360016129f4565b505050565b600080612170846129b7565b9050600061217f868686612bb9565b9050600073ffffffffffffffffffffffffffffffffffffffff168273ffffffffffffffffffffffffffffffffffffffff16146123da576000600b60008473ffffffffffffffffffffffffffffffffffffffff1673ffffffffffffffffffffffffffffffffffffffff168152602001908152602001600020905060005b81805490508110156122b3578682828154811061221b5761221a613f3e565b5b9060005260206000200154036122a657816001838054905061223d91906145cf565b8154811061224e5761224d613f3e565b5b906000526020600020015482828154811061226c5761226b613f3e565b5b90600052602060002001819055508180548061228b5761228a614603565b5b600190038181906000526020600020016000905590556122b3565b80806001019150506121fb565b50600b60008873ffffffffffffffffffffffffffffffffffffffff1673ffffffffffffffffffffffffffffffffffffffff168152602001908152602001600020869080600181540180825580915050600190039060005260206000200160009091909190915055866009600088815260200190815260200160002060060160006101000a81548173ffffffffffffffffffffffffffffffffffffffff021916908373ffffffffffffffffffffffffffffffffffffffff16021790555060006009600088815260200190815260200160002060060160146101000a81548160ff021916908315150217905550857f2231fc8bc2c20e26d85d66dc7f13a6b6d535c86d2a4d678bb2de61f5b713608384896040516123d0929190614632565b60405180910390a2505b80925050509392505050565b6123ee61214a565b73ffffffffffffffffffffffffffffffffffffffff1661240c61143f565b73ffffffffffffffffffffffffffffffffffffffff161461246b5761242f61214a565b6040517f118cdaa7000000000000000000000000000000000000000000000000000000008152600401612462919061351f565b60405180910390fd5b565b612487828260405180602001604052806000815250612dd3565b5050565b806006600084815260200190815260200160002090816124ab9190614393565b507ff8e1a15aba9398e019f0b49df1a4fde98ee17ae345cb5f6b5e2c27f5033e8ce7826040516124db91906135b5565b60405180910390a15050565b6000600760009054906101000a900473ffffffffffffffffffffffffffffffffffffffff16905081600760006101000a81548173ffffffffffffffffffffffffffffffffffffffff021916908373ffffffffffffffffffffffffffffffffffffffff1602179055508173ffffffffffffffffffffffffffffffffffffffff168173ffffffffffffffffffffffffffffffffffffffff167f8be0079c531659141344cd1fd0a4f28419497f9722a3daafe3b4186f6b6457e060405160405180910390a35050565b600073ffffffffffffffffffffffffffffffffffffffff168273ffffffffffffffffffffffffffffffffffffffff160361261e57816040517f5b08ba18000000000000000000000000000000000000000000000000000000008152600401612615919061351f565b60405180910390fd5b80600560008573ffffffffffffffffffffffffffffffffffffffff1673ffffffffffffffffffffffffffffffffffffffff16815260200190815260200160002060008473ffffffffffffffffffffffffffffffffffffffff1673ffffffffffffffffffffffffffffffffffffffff16815260200190815260200160002060006101000a81548160ff0219169083151502179055508173ffffffffffffffffffffffffffffffffffffffff168373ffffffffffffffffffffffffffffffffffffffff167f17307eab39ab6107e8899845ad3d59bd9653f200f220920489ca2b5937696c318360405161270f91906133ae565b60405180910390a3505050565b60008373ffffffffffffffffffffffffffffffffffffffff163b11156128c6578273ffffffffffffffffffffffffffffffffffffffff1663150b7a02868685856040518563ffffffff1660e01b815260040161277b94939291906146b0565b6020604051808303816000875af19250505080156127b757506040513d601f19601f820116820180604052508101906127b49190614711565b60015b61283b573d80600081146127e7576040519150601f19603f3d011682016040523d82523d6000602084013e6127ec565b606091505b50600081510361283357836040517f64a0ae9200000000000000000000000000000000000000000000000000000000815260040161282a919061351f565b60405180910390fd5b805160208201fd5b63150b7a0260e01b7bffffffffffffffffffffffffffffffffffffffffffffffffffffffff1916817bffffffffffffffffffffffffffffffffffffffffffffffffffffffff1916146128c457836040517f64a0ae920000000000000000000000000000000000000000000000000000000081526004016128bb919061351f565b60405180910390fd5b505b5050505050565b606060405180602001604052806000815250905090565b60606128ef82612085565b5060006128fa6128cd565b9050600081511161291a5760405180602001604052806000815250612945565b8061292484612df7565b6040516020016129359291906145ab565b6040516020818303038152906040525b915050919050565b60007f01ffc9a7000000000000000000000000000000000000000000000000000000007bffffffffffffffffffffffffffffffffffffffffffffffffffffffff1916827bffffffffffffffffffffffffffffffffffffffffffffffffffffffff1916149050919050565b60006002600083815260200190815260200160002060009054906101000a900473ffffffffffffffffffffffffffffffffffffffff169050919050565b8080612a2d5750600073ffffffffffffffffffffffffffffffffffffffff168273ffffffffffffffffffffffffffffffffffffffff1614155b15612b61576000612a3d84612085565b9050600073ffffffffffffffffffffffffffffffffffffffff168373ffffffffffffffffffffffffffffffffffffffff1614158015612aa857508273ffffffffffffffffffffffffffffffffffffffff168173ffffffffffffffffffffffffffffffffffffffff1614155b8015612abb5750612ab98184611cfe565b155b15612afd57826040517fa9fbf51f000000000000000000000000000000000000000000000000000000008152600401612af4919061351f565b60405180910390fd5b8115612b5f57838573ffffffffffffffffffffffffffffffffffffffff168273ffffffffffffffffffffffffffffffffffffffff167f8c5be1e5ebec7d5bd14f71427d1e84f3dd0314c0f7b2291e5b200ac8c7c3b92560405160405180910390a45b505b836004600085815260200190815260200160002060006101000a81548173ffffffffffffffffffffffffffffffffffffffff021916908373ffffffffffffffffffffffffffffffffffffffff16021790555050505050565b600080612bc5846129b7565b9050600073ffffffffffffffffffffffffffffffffffffffff168373ffffffffffffffffffffffffffffffffffffffff1614612c0757612c06818486612ec5565b5b600073ffffffffffffffffffffffffffffffffffffffff168173ffffffffffffffffffffffffffffffffffffffff1614612c9857612c496000856000806129f4565b6001600360008373ffffffffffffffffffffffffffffffffffffffff1673ffffffffffffffffffffffffffffffffffffffff168152602001908152602001600020600082825403925050819055505b600073ffffffffffffffffffffffffffffffffffffffff168573ffffffffffffffffffffffffffffffffffffffff1614612d1b576001600360008773ffffffffffffffffffffffffffffffffffffffff1673ffffffffffffffffffffffffffffffffffffffff168152602001908152602001600020600082825401925050819055505b846002600086815260200190815260200160002060006101000a81548173ffffffffffffffffffffffffffffffffffffffff021916908373ffffffffffffffffffffffffffffffffffffffff160217905550838573ffffffffffffffffffffffffffffffffffffffff168273ffffffffffffffffffffffffffffffffffffffff167fddf252ad1be2c89b69c2b068fc378daa952ba7f163c4a11628f55a4df523b3ef60405160405180910390a4809150509392505050565b612ddd8383612f89565b612df2612de861214a565b600085858561271c565b505050565b606060006001612e0684613082565b01905060008167ffffffffffffffff811115612e2557612e24613942565b5b6040519080825280601f01601f191660200182016040528015612e575781602001600182028036833780820191505090505b509050600082602083010190505b600115612eba578080600190039150507f3031323334353637383961626364656600000000000000000000000000000000600a86061a8153600a8581612eae57612ead61473e565b5b04945060008503612e65575b819350505050919050565b612ed08383836131d5565b612f8457600073ffffffffffffffffffffffffffffffffffffffff168373ffffffffffffffffffffffffffffffffffffffff1603612f4557806040517f7e273289000000000000000000000000000000000000000000000000000000008152600401612f3c91906135b5565b60405180910390fd5b81816040517f177e802f000000000000000000000000000000000000000000000000000000008152600401612f7b92919061476d565b60405180910390fd5b505050565b600073ffffffffffffffffffffffffffffffffffffffff168273ffffffffffffffffffffffffffffffffffffffff1603612ffb5760006040517f64a0ae92000000000000000000000000000000000000000000000000000000008152600401612ff2919061351f565b60405180910390fd5b600061300983836000612164565b9050600073ffffffffffffffffffffffffffffffffffffffff168173ffffffffffffffffffffffffffffffffffffffff161461307d5760006040517f73c6ac6e000000000000000000000000000000000000000000000000000000008152600401613074919061351f565b60405180910390fd5b505050565b600080600090507a184f03e93ff9f4daa797ed6e38ed64bf6a1f01000000000000000083106130e0577a184f03e93ff9f4daa797ed6e38ed64bf6a1f01000000000000000083816130d6576130d561473e565b5b0492506040810190505b6d04ee2d6d415b85acef8100000000831061311d576d04ee2d6d415b85acef810000000083816131135761311261473e565b5b0492506020810190505b662386f26fc10000831061314c57662386f26fc1000083816131425761314161473e565b5b0492506010810190505b6305f5e1008310613175576305f5e100838161316b5761316a61473e565b5b0492506008810190505b612710831061319a5761271083816131905761318f61473e565b5b0492506004810190505b606483106131bd57606483816131b3576131b261473e565b5b0492506002810190505b600a83106131cc576001810190505b80915050919050565b60008073ffffffffffffffffffffffffffffffffffffffff168373ffffffffffffffffffffffffffffffffffffffff161415801561328d57508273ffffffffffffffffffffffffffffffffffffffff168473ffffffffffffffffffffffffffffffffffffffff16148061324e575061324d8484611cfe565b5b8061328c57508273ffffffffffffffffffffffffffffffffffffffff166132748361210d565b73ffffffffffffffffffffffffffffffffffffffff16145b5b90509392505050565b604051806101200160405280600081526020016060815260200160008152602001600081526020016060815260200160008152602001600073ffffffffffffffffffffffffffffffffffffffff168152602001600015158152602001600081525090565b6000604051905090565b600080fd5b600080fd5b60007fffffffff0000000000000000000000000000000000000000000000000000000082169050919050565b6133438161330e565b811461334e57600080fd5b50565b6000813590506133608161333a565b92915050565b60006020828403121561337c5761337b613304565b5b600061338a84828501613351565b91505092915050565b60008115159050919050565b6133a881613393565b82525050565b60006020820190506133c3600083018461339f565b92915050565b600081519050919050565b600082825260208201905092915050565b60005b838110156134035780820151818401526020810190506133e8565b60008484015250505050565b6000601f19601f8301169050919050565b600061342b826133c9565b61343581856133d4565b93506134458185602086016133e5565b61344e8161340f565b840191505092915050565b600060208201905081810360008301526134738184613420565b905092915050565b6000819050919050565b61348e8161347b565b811461349957600080fd5b50565b6000813590506134ab81613485565b92915050565b6000602082840312156134c7576134c6613304565b5b60006134d58482850161349c565b91505092915050565b600073ffffffffffffffffffffffffffffffffffffffff82169050919050565b6000613509826134de565b9050919050565b613519816134fe565b82525050565b60006020820190506135346000830184613510565b92915050565b613543816134fe565b811461354e57600080fd5b50565b6000813590506135608161353a565b92915050565b6000806040838503121561357d5761357c613304565b5b600061358b85828601613551565b925050602061359c8582860161349c565b9150509250929050565b6135af8161347b565b82525050565b60006020820190506135ca60008301846135a6565b92915050565b6000806000606084860312156135e9576135e8613304565b5b60006135f786828701613551565b935050602061360886828701613551565b92505060406136198682870161349c565b9150509250925092565b61362c8161347b565b82525050565b600082825260208201905092915050565b600061364e826133c9565b6136588185613632565b93506136688185602086016133e5565b6136718161340f565b840191505092915050565b613685816134fe565b82525050565b61369481613393565b82525050565b6000610120830160008301516136b36000860182613623565b50602083015184820360208601526136cb8282613643565b91505060408301516136e06040860182613623565b5060608301516136f36060860182613623565b506080830151848203608086015261370b8282613643565b91505060a083015161372060a0860182613623565b5060c083015161373360c086018261367c565b5060e083015161374660e086018261368b565b5061010083015161375b610100860182613623565b508091505092915050565b60006020820190508181036000830152613780818461369a565b905092915050565b600081519050919050565b600082825260208201905092915050565b6000819050602082019050919050565b6000610120830160008301516137cd6000860182613623565b50602083015184820360208601526137e58282613643565b91505060408301516137fa6040860182613623565b50606083015161380d6060860182613623565b50608083015184820360808601526138258282613643565b91505060a083015161383a60a0860182613623565b5060c083015161384d60c086018261367c565b5060e083015161386060e086018261368b565b50610100830151613875610100860182613623565b508091505092915050565b600061388c83836137b4565b905092915050565b6000602082019050919050565b60006138ac82613788565b6138b68185613793565b9350836020820285016138c8856137a4565b8060005b8581101561390457848403895281516138e58582613880565b94506138f083613894565b925060208a019950506001810190506138cc565b50829750879550505050505092915050565b6000602082019050818103600083015261393081846138a1565b905092915050565b600080fd5b600080fd5b7f4e487b7100000000000000000000000000000000000000000000000000000000600052604160045260246000fd5b61397a8261340f565b810181811067ffffffffffffffff8211171561399957613998613942565b5b80604052505050565b60006139ac6132fa565b90506139b88282613971565b919050565b600067ffffffffffffffff8211156139d8576139d7613942565b5b6139e18261340f565b9050602081019050919050565b82818337600083830152505050565b6000613a10613a0b846139bd565b6139a2565b905082815260208101848484011115613a2c57613a2b61393d565b5b613a378482856139ee565b509392505050565b600082601f830112613a5457613a53613938565b5b8135613a648482602086016139fd565b91505092915050565b600080600080600080600060e0888a031215613a8c57613a8b613304565b5b6000613a9a8a828b01613551565b975050602088013567ffffffffffffffff811115613abb57613aba613309565b5b613ac78a828b01613a3f565b965050604088013567ffffffffffffffff811115613ae857613ae7613309565b5b613af48a828b01613a3f565b9550506060613b058a828b0161349c565b9450506080613b168a828b0161349c565b93505060a088013567ffffffffffffffff811115613b3757613b36613309565b5b613b438a828b01613a3f565b92505060c0613b548a828b0161349c565b91505092959891949750929550565b600060208284031215613b7957613b78613304565b5b6000613b8784828501613551565b91505092915050565b60008060408385031215613ba757613ba6613304565b5b6000613bb58582860161349c565b9250506020613bc68582860161349c565b9150509250929050565b613bd981613393565b8114613be457600080fd5b50565b600081359050613bf681613bd0565b92915050565b60008060408385031215613c1357613c12613304565b5b6000613c2185828601613551565b9250506020613c3285828601613be7565b9150509250929050565b600067ffffffffffffffff821115613c5757613c56613942565b5b613c608261340f565b9050602081019050919050565b6000613c80613c7b84613c3c565b6139a2565b905082815260208101848484011115613c9c57613c9b61393d565b5b613ca78482856139ee565b509392505050565b600082601f830112613cc457613cc3613938565b5b8135613cd4848260208601613c6d565b91505092915050565b60008060008060808587031215613cf757613cf6613304565b5b6000613d0587828801613551565b9450506020613d1687828801613551565b9350506040613d278782880161349c565b925050606085013567ffffffffffffffff811115613d4857613d47613309565b5b613d5487828801613caf565b91505092959194509250565b60008060408385031215613d7757613d76613304565b5b6000613d8585828601613551565b9250506020613d9685828601613551565b9150509250929050565b600061012082019050613db6600083018c6135a6565b8181036020830152613dc8818b613420565b9050613dd7604083018a6135a6565b613de460608301896135a6565b8181036080830152613df68188613420565b9050613e0560a08301876135a6565b613e1260c0830186613510565b613e1f60e083018561339f565b613e2d6101008301846135a6565b9a9950505050505050505050565b7f4e487b7100000000000000000000000000000000000000000000000000000000600052602260045260246000fd5b60006002820490506001821680613e8257607f821691505b602082108103613e9557613e94613e3b565b5b50919050565b6000606082019050613eb06000830186613510565b613ebd60208301856135a6565b613eca6040830184613510565b949350505050565b7f50726f706572747920646f6573206e6f74206578697374000000000000000000600082015250565b6000613f086017836133d4565b9150613f1382613ed2565b602082019050919050565b60006020820190508181036000830152613f3781613efb565b9050919050565b7f4e487b7100000000000000000000000000000000000000000000000000000000600052603260045260246000fd5b7f4e487b7100000000000000000000000000000000000000000000000000000000600052601160045260246000fd5b6000613fa78261347b565b91507fffffffffffffffffffffffffffffffffffffffffffffffffffffffffffffffff8203613fd957613fd8613f6d565b5b600182019050919050565b600081905092915050565b6000613ffa826133c9565b6140048185613fe4565b93506140148185602086016133e5565b80840191505092915050565b600061402c8284613fef565b915081905092915050565b7f546f6b656e2055524920616c7265616479206578697374730000000000000000600082015250565b600061406d6018836133d4565b915061407882614037565b602082019050919050565b6000602082019050818103600083015261409c81614060565b9050919050565b7f41726561206d7573742062652067726561746572207468616e20300000000000600082015250565b60006140d9601b836133d4565b91506140e4826140a3565b602082019050919050565b60006020820190508181036000830152614108816140cc565b9050919050565b7f56616c7565206d7573742062652067726561746572207468616e203000000000600082015250565b6000614145601c836133d4565b91506141508261410f565b602082019050919050565b6000602082019050818103600083015261417481614138565b9050919050565b7f496e76616c69642079656172206275696c740000000000000000000000000000600082015250565b60006141b16012836133d4565b91506141bc8261417b565b602082019050919050565b600060208201905081810360008301526141e0816141a4565b9050919050565b60008190508160005260206000209050919050565b60006020601f8301049050919050565b600082821b905092915050565b6000600883026142497fffffffffffffffffffffffffffffffffffffffffffffffffffffffffffffffff8261420c565b614253868361420c565b95508019841693508086168417925050509392505050565b6000819050919050565b600061429061428b6142868461347b565b61426b565b61347b565b9050919050565b6000819050919050565b6142aa83614275565b6142be6142b682614297565b848454614219565b825550505050565b600090565b6142d36142c6565b6142de8184846142a1565b505050565b5b81811015614302576142f76000826142cb565b6001810190506142e4565b5050565b601f82111561434757614318816141e7565b614321846141fc565b81016020851015614330578190505b61434461433c856141fc565b8301826142e3565b50505b505050565b600082821c905092915050565b600061436a6000198460080261434c565b1980831691505092915050565b60006143838383614359565b9150826002028217905092915050565b61439c826133c9565b67ffffffffffffffff8111156143b5576143b4613942565b5b6143bf8254613e6a565b6143ca828285614306565b600060209050601f8311600181146143fd57600084156143eb578287015190505b6143f58582614377565b86555061445d565b601f19841661440b866141e7565b60005b828110156144335784890151825560018201915060208501945060208101905061440e565b86831015614450578489015161444c601f891682614359565b8355505b6001600288020188555050505b505050505050565b6000606082019050818103600083015261447f8186613420565b905061448e60208301856135a6565b81810360408301526144a08184613420565b9050949350505050565b7f4e6f7420617574686f72697a6564000000000000000000000000000000000000600082015250565b60006144e0600e836133d4565b91506144eb826144aa565b602082019050919050565b6000602082019050818103600083015261450f816144d3565b9050919050565b600060408201905061452b60008301856135a6565b614538602083018461339f565b9392505050565b7f4e6f7420746865206f776e657200000000000000000000000000000000000000600082015250565b6000614575600d836133d4565b91506145808261453f565b602082019050919050565b600060208201905081810360008301526145a481614568565b9050919050565b60006145b78285613fef565b91506145c38284613fef565b91508190509392505050565b60006145da8261347b565b91506145e58361347b565b92508282039050818111156145fd576145fc613f6d565b5b92915050565b7f4e487b7100000000000000000000000000000000000000000000000000000000600052603160045260246000fd5b60006040820190506146476000830185613510565b6146546020830184613510565b9392505050565b600081519050919050565b600082825260208201905092915050565b60006146828261465b565b61468c8185614666565b935061469c8185602086016133e5565b6146a58161340f565b840191505092915050565b60006080820190506146c56000830187613510565b6146d26020830186613510565b6146df60408301856135a6565b81810360608301526146f18184614677565b905095945050505050565b60008151905061470b8161333a565b92915050565b60006020828403121561472757614726613304565b5b6000614735848285016146fc565b91505092915050565b7f4e487b7100000000000000000000000000000000000000000000000000000000600052601260045260246000fd5b60006040820190506147826000830185613510565b61478f60208301846135a6565b939250505056fea2646970667358221220d3a4f5611bc2d0f91d304cd8d6468cf1244effb1ed0f11f8b1a241fba014de2e64736f6c634300081c0033",
  "linkReferences": {},
  "deployedLinkReferences": {}
}