{
  "_format": "hh-sol-artifact-1",
  "contractName": "RealEstateToken",
  "sourceName": "contracts/RealEstateToken.sol",
  "abi": [
    {
      "inputs": [
        {
          "internalType": "address",
          "name": "initialOwner",
          "type": "address"
        }
      ],
      "stateMutability": "nonpayable",
      "type": "constructor"
    },
    {
      "inputs": [
        {
          "internalType": "address",
          "name": "sender",
          "type": "address"
        },
        {
          "internalType": "uint256",
          "name": "tokenId",
          "type": "uint256"
        },
        {
          "internalType": "address",
          "name": "owner",
          "type": "address"
        }
      ],
      "name": "ERC721IncorrectOwner",
      "type": "error"
    },
    {
      "inputs": [
        {
          "internalType": "address",
          "name": "operator",
          "type": "address"
        },
        {
          "internalType": "uint256",
          "name": "tokenId",
          "type": "uint256"
        }
      ],
      "name": "ERC721InsufficientApproval",
      "type": "error"
    },
    {
      "inputs": [
        {
          "internalType": "address",
          "name": "approver",
          "type": "address"
        }
      ],
      "name": "ERC721InvalidApprover",
      "type": "error"
    },
    {
      "inputs": [
        {
          "internalType": "address",
          "name": "operator",
          "type": "address"
        }
      ],
      "name": "ERC721InvalidOperator",
      "type": "error"
    },
    {
      "inputs": [
        {
          "internalType": "address",
          "name": "owner",
          "type": "address"
        }
      ],
      "name": "ERC721InvalidOwner",
      "type": "error"
    },
    {
      "inputs": [
        {
          "internalType": "address",
          "name": "receiver",
          "type": "address"
        }
      ],
      "name": "ERC721InvalidReceiver",
      "type": "error"
    },
    {
      "inputs": [
        {
          "internalType": "address",
          "name": "sender",
          "type": "address"
        }
      ],
      "name": "ERC721InvalidSender",
      "type": "error"
    },
    {
      "inputs": [
        {
          "internalType": "uint256",
          "name": "tokenId",
          "type": "uint256"
        }
      ],
      "name": "ERC721NonexistentToken",
      "type": "error"
    },
    {
      "inputs": [
        {
          "internalType": "address",
          "name": "owner",
          "type": "address"
        }
      ],
      "name": "OwnableInvalidOwner",
      "type": "error"
    },
    {
      "inputs": [
        {
          "internalType": "address",
          "name": "account",
          "type": "address"
        }
      ],
      "name": "OwnableUnauthorizedAccount",
      "type": "error"
    },
    {
      "anonymous": false,
      "inputs": [
        {
          "indexed": true,
          "internalType": "address",
          "name": "owner",
          "type": "address"
        },
        {
          "indexed": true,
          "internalType": "address",
          "name": "approved",
          "type": "address"
        },
        {
          "indexed": true,
          "internalType": "uint256",
          "name": "tokenId",
          "type": "uint256"
        }
      ],
      "name": "Approval",
      "type": "event"
    },
    {
      "anonymous": false,
      "inputs": [
        {
          "indexed": true,
          "internalType": "address",
          "name": "owner",
          "type": "address"
        },
        {
          "indexed": true,
          "internalType": "address",
          "name": "operator",
          "type": "address"
        },
        {
          "indexed": false,
          "internalType": "bool",
          "name": "approved",
          "type": "bool"
        }
      ],
      "name": "ApprovalForAll",
      "type": "event"
    },
    {
      "anonymous": false,
      "inputs": [
        {
          "indexed": false,
          "internalType": "uint256",
          "name": "_fromTokenId",
          "type": "uint256"
        },
        {
          "indexed": false,
          "internalType": "uint256",
          "name": "_toTokenId",
          "type": "uint256"
        }
      ],
      "name": "BatchMetadataUpdate",
      "type": "event"
    },
    {
      "anonymous": false,
      "inputs": [
        {
          "indexed": false,
          "internalType": "uint256",
          "name": "_tokenId",
          "type": "uint256"
        }
      ],
      "name": "MetadataUpdate",
      "type": "event"
    },
    {
      "anonymous": false,
      "inputs": [
        {
          "indexed": true,
          "internalType": "address",
          "name": "previousOwner",
          "type": "address"
        },
        {
          "indexed": true,
          "internalType": "address",
          "name": "newOwner",
          "type": "address"
        }
      ],
      "name": "OwnershipTransferred",
      "type": "event"
    },
    {
      "anonymous": false,
      "inputs": [
        {
          "indexed": true,
          "internalType": "address",
          "name": "from",
          "type": "address"
        },
        {
          "indexed": true,
          "internalType": "address",
          "name": "to",
          "type": "address"
        },
        {
          "indexed": true,
          "internalType": "uint256",
          "name": "tokenId",
          "type": "uint256"
        }
      ],
      "name": "Transfer",
      "type": "event"
    },
    {
      "inputs": [
        {
          "internalType": "address",
          "name": "to",
          "type": "address"
        },
        {
          "internalType": "uint256",
          "name": "tokenId",
          "type": "uint256"
        }
      ],
      "name": "approve",
      "outputs": [],
      "stateMutability": "nonpayable",
      "type": "function"
    },
    {
      "inputs": [
        {
          "internalType": "address",
          "name": "owner",
          "type": "address"
        }
      ],
      "name": "balanceOf",
      "outputs": [
        {
          "internalType": "uint256",
          "name": "",
          "type": "uint256"
        }
      ],
      "stateMutability": "view",
      "type": "function"
    },
    {
      "inputs": [
        {
          "internalType": "uint256",
          "name": "tokenId",
          "type": "uint256"
        }
      ],
      "name": "getApproved",
      "outputs": [
        {
          "internalType": "address",
          "name": "",
          "type": "address"
        }
      ],
      "stateMutability": "view",
      "type": "function"
    },
    {
      "inputs": [
        {
          "internalType": "address",
          "name": "owner",
          "type": "address"
        },
        {
          "internalType": "address",
          "name": "operator",
          "type": "address"
        }
      ],
      "name": "isApprovedForAll",
      "outputs": [
        {
          "internalType": "bool",
          "name": "",
          "type": "bool"
        }
      ],
      "stateMutability": "view",
      "type": "function"
    },
    {
      "inputs": [
        {
          "internalType": "address",
          "name": "to",
          "type": "address"
        },
        {
          "internalType": "string",
          "name": "tokenURI",
          "type": "string"
        }
      ],
      "name": "mintProperty",
      "outputs": [],
      "stateMutability": "nonpayable",
      "type": "function"
    },
    {
      "inputs": [],
      "name": "name",
      "outputs": [
        {
          "internalType": "string",
          "name": "",
          "type": "string"
        }
      ],
      "stateMutability": "view",
      "type": "function"
    },
    {
      "inputs": [],
      "name": "nextTokenId",
      "outputs": [
        {
          "internalType": "uint256",
          "name": "",
          "type": "uint256"
        }
      ],
      "stateMutability": "view",
      "type": "function"
    },
    {
      "inputs": [],
      "name": "owner",
      "outputs": [
        {
          "internalType": "address",
          "name": "",
          "type": "address"
        }
      ],
      "stateMutability": "view",
      "type": "function"
    },
    {
      "inputs": [
        {
          "internalType": "uint256",
          "name": "tokenId",
          "type": "uint256"
        }
      ],
      "name": "ownerOf",
      "outputs": [
        {
          "internalType": "address",
          "name": "",
          "type": "address"
        }
      ],
      "stateMutability": "view",
      "type": "function"
    },
    {
      "inputs": [],
      "name": "renounceOwnership",
      "outputs": [],
      "stateMutability": "nonpayable",
      "type": "function"
    },
    {
      "inputs": [
        {
          "internalType": "address",
          "name": "from",
          "type": "address"
        },
        {
          "internalType": "address",
          "name": "to",
          "type": "address"
        },
        {
          "internalType": "uint256",
          "name": "tokenId",
          "type": "uint256"
        }
      ],
      "name": "safeTransferFrom",
      "outputs": [],
      "stateMutability": "nonpayable",
      "type": "function"
    },
    {
      "inputs": [
        {
          "internalType": "address",
          "name": "from",
          "type": "address"
        },
        {
          "internalType": "address",
          "name": "to",
          "type": "address"
        },
        {
          "internalType": "uint256",
          "name": "tokenId",
          "type": "uint256"
        },
        {
          "internalType": "bytes",
          "name": "data",
          "type": "bytes"
        }
      ],
      "name": "safeTransferFrom",
      "outputs": [],
      "stateMutability": "nonpayable",
      "type": "function"
    },
    {
      "inputs": [
        {
          "internalType": "address",
          "name": "operator",
          "type": "address"
        },
        {
          "internalType": "bool",
          "name": "approved",
          "type": "bool"
        }
      ],
      "name": "setApprovalForAll",
      "outputs": [],
      "stateMutability": "nonpayable",
      "type": "function"
    },
    {
      "inputs": [
        {
          "internalType": "bytes4",
          "name": "interfaceId",
          "type": "bytes4"
        }
      ],
      "name": "supportsInterface",
      "outputs": [
        {
          "internalType": "bool",
          "name": "",
          "type": "bool"
        }
      ],
      "stateMutability": "view",
      "type": "function"
    },
    {
      "inputs": [],
      "name": "symbol",
      "outputs": [
        {
          "internalType": "string",
          "name": "",
          "type": "string"
        }
      ],
      "stateMutability": "view",
      "type": "function"
    },
    {
      "inputs": [
        {
          "internalType": "uint256",
          "name": "tokenId",
          "type": "uint256"
        }
      ],
      "name": "tokenURI",
      "outputs": [
        {
          "internalType": "string",
          "name": "",
          "type": "string"
        }
      ],
      "stateMutability": "view",
      "type": "function"
    },
    {
      "inputs": [
        {
          "internalType": "address",
          "name": "from",
          "type": "address"
        },
        {
          "internalType": "address",
          "name": "to",
          "type": "address"
        },
        {
          "internalType": "uint256",
          "name": "tokenId",
          "type": "uint256"
        }
      ],
      "name": "transferFrom",
      "outputs": [],
      "stateMutability": "nonpayable",
      "type": "function"
    },
    {
      "inputs": [
        {
          "internalType": "address",
          "name": "newOwner",
          "type": "address"
        }
      ],
      "name": "transferOwnership",
      "outputs": [],
      "stateMutability": "nonpayable",
      "type": "function"
    }
  ],
  "bytecode": "0x608060405234801561001057600080fd5b50604051612c91380380612c9183398181016040528101906100329190610272565b806040518060400160405280600f81526020017f5265616c457374617465546f6b656e00000000000000000000000000000000008152506040518060400160405280600381526020017f524554000000000000000000000000000000000000000000000000000000000081525081600090816100ae91906104ef565b5080600190816100be91906104ef565b505050600073ffffffffffffffffffffffffffffffffffffffff168173ffffffffffffffffffffffffffffffffffffffff16036101335760006040517f1e4fbdf700000000000000000000000000000000000000000000000000000000815260040161012a91906105d0565b60405180910390fd5b6101428161014960201b60201c565b50506105eb565b6000600760009054906101000a900473ffffffffffffffffffffffffffffffffffffffff16905081600760006101000a81548173ffffffffffffffffffffffffffffffffffffffff021916908373ffffffffffffffffffffffffffffffffffffffff1602179055508173ffffffffffffffffffffffffffffffffffffffff168173ffffffffffffffffffffffffffffffffffffffff167f8be0079c531659141344cd1fd0a4f28419497f9722a3daafe3b4186f6b6457e060405160405180910390a35050565b600080fd5b600073ffffffffffffffffffffffffffffffffffffffff82169050919050565b600061023f82610214565b9050919050565b61024f81610234565b811461025a57600080fd5b50565b60008151905061026c81610246565b92915050565b6000602082840312156102885761028761020f565b5b60006102968482850161025d565b91505092915050565b600081519050919050565b7f4e487b7100000000000000000000000000000000000000000000000000000000600052604160045260246000fd5b7f4e487b7100000000000000000000000000000000000000000000000000000000600052602260045260246000fd5b6000600282049050600182168061032057607f821691505b602082108103610333576103326102d9565b5b50919050565b60008190508160005260206000209050919050565b60006020601f8301049050919050565b600082821b905092915050565b60006008830261039b7fffffffffffffffffffffffffffffffffffffffffffffffffffffffffffffffff8261035e565b6103a5868361035e565b95508019841693508086168417925050509392505050565b6000819050919050565b6000819050919050565b60006103ec6103e76103e2846103bd565b6103c7565b6103bd565b9050919050565b6000819050919050565b610406836103d1565b61041a610412826103f3565b84845461036b565b825550505050565b600090565b61042f610422565b61043a8184846103fd565b505050565b5b8181101561045e57610453600082610427565b600181019050610440565b5050565b601f8211156104a35761047481610339565b61047d8461034e565b8101602085101561048c578190505b6104a06104988561034e565b83018261043f565b50505b505050565b600082821c905092915050565b60006104c6600019846008026104a8565b1980831691505092915050565b60006104df83836104b5565b9150826002028217905092915050565b6104f88261029f565b67ffffffffffffffff811115610511576105106102aa565b5b61051b8254610308565b610526828285610462565b600060209050601f8311600181146105595760008415610547578287015190505b61055185826104d3565b8655506105b9565b601f19841661056786610339565b60005b8281101561058f5784890151825560018201915060208501945060208101905061056a565b868310156105ac57848901516105a8601f8916826104b5565b8355505b6001600288020188555050505b505050505050565b6105ca81610234565b82525050565b60006020820190506105e560008301846105c1565b92915050565b612697806105fa6000396000f3fe608060405234801561001057600080fd5b50600436106101165760003560e01c8063715018a6116100a2578063a22cb46511610071578063a22cb465146102cd578063b88d4fde146102e9578063c87b56dd14610305578063e985e9c514610335578063f2fde38b1461036557610116565b8063715018a61461026957806375794a3c146102735780638da5cb5b1461029157806395d89b41146102af57610116565b8063177dc17f116100e9578063177dc17f146101b557806323b872dd146101d157806342842e0e146101ed5780636352211e1461020957806370a082311461023957610116565b806301ffc9a71461011b57806306fdde031461014b578063081812fc14610169578063095ea7b314610199575b600080fd5b61013560048036038101906101309190611aef565b610381565b6040516101429190611b37565b60405180910390f35b6101536103e2565b6040516101609190611be2565b60405180910390f35b610183600480360381019061017e9190611c3a565b610474565b6040516101909190611ca8565b60405180910390f35b6101b360048036038101906101ae9190611cef565b610490565b005b6101cf60048036038101906101ca9190611e64565b6104a6565b005b6101eb60048036038101906101e69190611ec0565b6104e6565b005b61020760048036038101906102029190611ec0565b6105e8565b005b610223600480360381019061021e9190611c3a565b610608565b6040516102309190611ca8565b60405180910390f35b610253600480360381019061024e9190611f13565b61061a565b6040516102609190611f4f565b60405180910390f35b6102716106d4565b005b61027b6106e8565b6040516102889190611f4f565b60405180910390f35b6102996106ee565b6040516102a69190611ca8565b60405180910390f35b6102b7610718565b6040516102c49190611be2565b60405180910390f35b6102e760048036038101906102e29190611f96565b6107aa565b005b61030360048036038101906102fe9190612077565b6107c0565b005b61031f600480360381019061031a9190611c3a565b6107e5565b60405161032c9190611be2565b60405180910390f35b61034f600480360381019061034a91906120fa565b6108f8565b60405161035c9190611b37565b60405180910390f35b61037f600480360381019061037a9190611f13565b61098c565b005b6000634906490660e01b7bffffffffffffffffffffffffffffffffffffffffffffffffffffffff1916827bffffffffffffffffffffffffffffffffffffffffffffffffffffffff191614806103db57506103da82610a12565b5b9050919050565b6060600080546103f190612169565b80601f016020809104026020016040519081016040528092919081815260200182805461041d90612169565b801561046a5780601f1061043f5761010080835404028352916020019161046a565b820191906000526020600020905b81548152906001019060200180831161044d57829003601f168201915b5050505050905090565b600061047f82610af4565b5061048982610b7c565b9050919050565b6104a2828261049d610bb9565b610bc1565b5050565b6104ae610bd3565b600060085490506104bf8382610c5a565b6104c98183610c78565b600860008154809291906104dc906121c9565b9190505550505050565b600073ffffffffffffffffffffffffffffffffffffffff168273ffffffffffffffffffffffffffffffffffffffff16036105585760006040517f64a0ae9200000000000000000000000000000000000000000000000000000000815260040161054f9190611ca8565b60405180910390fd5b600061056c8383610567610bb9565b610cd4565b90508373ffffffffffffffffffffffffffffffffffffffff168173ffffffffffffffffffffffffffffffffffffffff16146105e2578382826040517f64283d7b0000000000000000000000000000000000000000000000000000000081526004016105d993929190612211565b60405180910390fd5b50505050565b610603838383604051806020016040528060008152506107c0565b505050565b600061061382610af4565b9050919050565b60008073ffffffffffffffffffffffffffffffffffffffff168273ffffffffffffffffffffffffffffffffffffffff160361068d5760006040517f89c62b640000000000000000000000000000000000000000000000000000000081526004016106849190611ca8565b60405180910390fd5b600360008373ffffffffffffffffffffffffffffffffffffffff1673ffffffffffffffffffffffffffffffffffffffff168152602001908152602001600020549050919050565b6106dc610bd3565b6106e66000610eee565b565b60085481565b6000600760009054906101000a900473ffffffffffffffffffffffffffffffffffffffff16905090565b60606001805461072790612169565b80601f016020809104026020016040519081016040528092919081815260200182805461075390612169565b80156107a05780601f10610775576101008083540402835291602001916107a0565b820191906000526020600020905b81548152906001019060200180831161078357829003601f168201915b5050505050905090565b6107bc6107b5610bb9565b8383610fb4565b5050565b6107cb8484846104e6565b6107df6107d6610bb9565b85858585611123565b50505050565b60606107f082610af4565b50600060066000848152602001908152602001600020805461081190612169565b80601f016020809104026020016040519081016040528092919081815260200182805461083d90612169565b801561088a5780601f1061085f5761010080835404028352916020019161088a565b820191906000526020600020905b81548152906001019060200180831161086d57829003601f168201915b50505050509050600061089b6112d4565b905060008151036108b05781925050506108f3565b6000825111156108e55780826040516020016108cd929190612284565b604051602081830303815290604052925050506108f3565b6108ee846112eb565b925050505b919050565b6000600560008473ffffffffffffffffffffffffffffffffffffffff1673ffffffffffffffffffffffffffffffffffffffff16815260200190815260200160002060008373ffffffffffffffffffffffffffffffffffffffff1673ffffffffffffffffffffffffffffffffffffffff16815260200190815260200160002060009054906101000a900460ff16905092915050565b610994610bd3565b600073ffffffffffffffffffffffffffffffffffffffff168173ffffffffffffffffffffffffffffffffffffffff1603610a065760006040517f1e4fbdf70000000000000000000000000000000000000000000000000000000081526004016109fd9190611ca8565b60405180910390fd5b610a0f81610eee565b50565b60007f80ac58cd000000000000000000000000000000000000000000000000000000007bffffffffffffffffffffffffffffffffffffffffffffffffffffffff1916827bffffffffffffffffffffffffffffffffffffffffffffffffffffffff19161480610add57507f5b5e139f000000000000000000000000000000000000000000000000000000007bffffffffffffffffffffffffffffffffffffffffffffffffffffffff1916827bffffffffffffffffffffffffffffffffffffffffffffffffffffffff1916145b80610aed5750610aec82611354565b5b9050919050565b600080610b00836113be565b9050600073ffffffffffffffffffffffffffffffffffffffff168173ffffffffffffffffffffffffffffffffffffffff1603610b7357826040517f7e273289000000000000000000000000000000000000000000000000000000008152600401610b6a9190611f4f565b60405180910390fd5b80915050919050565b60006004600083815260200190815260200160002060009054906101000a900473ffffffffffffffffffffffffffffffffffffffff169050919050565b600033905090565b610bce83838360016113fb565b505050565b610bdb610bb9565b73ffffffffffffffffffffffffffffffffffffffff16610bf96106ee565b73ffffffffffffffffffffffffffffffffffffffff1614610c5857610c1c610bb9565b6040517f118cdaa7000000000000000000000000000000000000000000000000000000008152600401610c4f9190611ca8565b60405180910390fd5b565b610c748282604051806020016040528060008152506115c0565b5050565b80600660008481526020019081526020016000209081610c989190612454565b507ff8e1a15aba9398e019f0b49df1a4fde98ee17ae345cb5f6b5e2c27f5033e8ce782604051610cc89190611f4f565b60405180910390a15050565b600080610ce0846113be565b9050600073ffffffffffffffffffffffffffffffffffffffff168373ffffffffffffffffffffffffffffffffffffffff1614610d2257610d218184866115e4565b5b600073ffffffffffffffffffffffffffffffffffffffff168173ffffffffffffffffffffffffffffffffffffffff1614610db357610d646000856000806113fb565b6001600360008373ffffffffffffffffffffffffffffffffffffffff1673ffffffffffffffffffffffffffffffffffffffff168152602001908152602001600020600082825403925050819055505b600073ffffffffffffffffffffffffffffffffffffffff168573ffffffffffffffffffffffffffffffffffffffff1614610e36576001600360008773ffffffffffffffffffffffffffffffffffffffff1673ffffffffffffffffffffffffffffffffffffffff168152602001908152602001600020600082825401925050819055505b846002600086815260200190815260200160002060006101000a81548173ffffffffffffffffffffffffffffffffffffffff021916908373ffffffffffffffffffffffffffffffffffffffff160217905550838573ffffffffffffffffffffffffffffffffffffffff168273ffffffffffffffffffffffffffffffffffffffff167fddf252ad1be2c89b69c2b068fc378daa952ba7f163c4a11628f55a4df523b3ef60405160405180910390a4809150509392505050565b6000600760009054906101000a900473ffffffffffffffffffffffffffffffffffffffff16905081600760006101000a81548173ffffffffffffffffffffffffffffffffffffffff021916908373ffffffffffffffffffffffffffffffffffffffff1602179055508173ffffffffffffffffffffffffffffffffffffffff168173ffffffffffffffffffffffffffffffffffffffff167f8be0079c531659141344cd1fd0a4f28419497f9722a3daafe3b4186f6b6457e060405160405180910390a35050565b600073ffffffffffffffffffffffffffffffffffffffff168273ffffffffffffffffffffffffffffffffffffffff160361102557816040517f5b08ba1800000000000000000000000000000000000000000000000000000000815260040161101c9190611ca8565b60405180910390fd5b80600560008573ffffffffffffffffffffffffffffffffffffffff1673ffffffffffffffffffffffffffffffffffffffff16815260200190815260200160002060008473ffffffffffffffffffffffffffffffffffffffff1673ffffffffffffffffffffffffffffffffffffffff16815260200190815260200160002060006101000a81548160ff0219169083151502179055508173ffffffffffffffffffffffffffffffffffffffff168373ffffffffffffffffffffffffffffffffffffffff167f17307eab39ab6107e8899845ad3d59bd9653f200f220920489ca2b5937696c31836040516111169190611b37565b60405180910390a3505050565b60008373ffffffffffffffffffffffffffffffffffffffff163b11156112cd578273ffffffffffffffffffffffffffffffffffffffff1663150b7a02868685856040518563ffffffff1660e01b8152600401611182949392919061257b565b6020604051808303816000875af19250505080156111be57506040513d601f19601f820116820180604052508101906111bb91906125dc565b60015b611242573d80600081146111ee576040519150601f19603f3d011682016040523d82523d6000602084013e6111f3565b606091505b50600081510361123a57836040517f64a0ae920000000000000000000000000000000000000000000000000000000081526004016112319190611ca8565b60405180910390fd5b805160208201fd5b63150b7a0260e01b7bffffffffffffffffffffffffffffffffffffffffffffffffffffffff1916817bffffffffffffffffffffffffffffffffffffffffffffffffffffffff1916146112cb57836040517f64a0ae920000000000000000000000000000000000000000000000000000000081526004016112c29190611ca8565b60405180910390fd5b505b5050505050565b606060405180602001604052806000815250905090565b60606112f682610af4565b5060006113016112d4565b90506000815111611321576040518060200160405280600081525061134c565b8061132b846116a8565b60405160200161133c929190612284565b6040516020818303038152906040525b915050919050565b60007f01ffc9a7000000000000000000000000000000000000000000000000000000007bffffffffffffffffffffffffffffffffffffffffffffffffffffffff1916827bffffffffffffffffffffffffffffffffffffffffffffffffffffffff1916149050919050565b60006002600083815260200190815260200160002060009054906101000a900473ffffffffffffffffffffffffffffffffffffffff169050919050565b80806114345750600073ffffffffffffffffffffffffffffffffffffffff168273ffffffffffffffffffffffffffffffffffffffff1614155b1561156857600061144484610af4565b9050600073ffffffffffffffffffffffffffffffffffffffff168373ffffffffffffffffffffffffffffffffffffffff16141580156114af57508273ffffffffffffffffffffffffffffffffffffffff168173ffffffffffffffffffffffffffffffffffffffff1614155b80156114c257506114c081846108f8565b155b1561150457826040517fa9fbf51f0000000000000000000000000000000000000000000000000000000081526004016114fb9190611ca8565b60405180910390fd5b811561156657838573ffffffffffffffffffffffffffffffffffffffff168273ffffffffffffffffffffffffffffffffffffffff167f8c5be1e5ebec7d5bd14f71427d1e84f3dd0314c0f7b2291e5b200ac8c7c3b92560405160405180910390a45b505b836004600085815260200190815260200160002060006101000a81548173ffffffffffffffffffffffffffffffffffffffff021916908373ffffffffffffffffffffffffffffffffffffffff16021790555050505050565b6115ca8383611776565b6115df6115d5610bb9565b6000858585611123565b505050565b6115ef83838361186f565b6116a357600073ffffffffffffffffffffffffffffffffffffffff168373ffffffffffffffffffffffffffffffffffffffff160361166457806040517f7e27328900000000000000000000000000000000000000000000000000000000815260040161165b9190611f4f565b60405180910390fd5b81816040517f177e802f00000000000000000000000000000000000000000000000000000000815260040161169a929190612609565b60405180910390fd5b505050565b6060600060016116b784611930565b01905060008167ffffffffffffffff8111156116d6576116d5611d39565b5b6040519080825280601f01601f1916602001820160405280156117085781602001600182028036833780820191505090505b509050600082602083010190505b60011561176b578080600190039150507f3031323334353637383961626364656600000000000000000000000000000000600a86061a8153600a858161175f5761175e612632565b5b04945060008503611716575b819350505050919050565b600073ffffffffffffffffffffffffffffffffffffffff168273ffffffffffffffffffffffffffffffffffffffff16036117e85760006040517f64a0ae920000000000000000000000000000000000000000000000000000000081526004016117df9190611ca8565b60405180910390fd5b60006117f683836000610cd4565b9050600073ffffffffffffffffffffffffffffffffffffffff168173ffffffffffffffffffffffffffffffffffffffff161461186a5760006040517f73c6ac6e0000000000000000000000000000000000000000000000000000000081526004016118619190611ca8565b60405180910390fd5b505050565b60008073ffffffffffffffffffffffffffffffffffffffff168373ffffffffffffffffffffffffffffffffffffffff161415801561192757508273ffffffffffffffffffffffffffffffffffffffff168473ffffffffffffffffffffffffffffffffffffffff1614806118e857506118e784846108f8565b5b8061192657508273ffffffffffffffffffffffffffffffffffffffff1661190e83610b7c565b73ffffffffffffffffffffffffffffffffffffffff16145b5b90509392505050565b600080600090507a184f03e93ff9f4daa797ed6e38ed64bf6a1f010000000000000000831061198e577a184f03e93ff9f4daa797ed6e38ed64bf6a1f010000000000000000838161198457611983612632565b5b0492506040810190505b6d04ee2d6d415b85acef810000000083106119cb576d04ee2d6d415b85acef810000000083816119c1576119c0612632565b5b0492506020810190505b662386f26fc1000083106119fa57662386f26fc1000083816119f0576119ef612632565b5b0492506010810190505b6305f5e1008310611a23576305f5e1008381611a1957611a18612632565b5b0492506008810190505b6127108310611a48576127108381611a3e57611a3d612632565b5b0492506004810190505b60648310611a6b5760648381611a6157611a60612632565b5b0492506002810190505b600a8310611a7a576001810190505b80915050919050565b6000604051905090565b600080fd5b600080fd5b60007fffffffff0000000000000000000000000000000000000000000000000000000082169050919050565b611acc81611a97565b8114611ad757600080fd5b50565b600081359050611ae981611ac3565b92915050565b600060208284031215611b0557611b04611a8d565b5b6000611b1384828501611ada565b91505092915050565b60008115159050919050565b611b3181611b1c565b82525050565b6000602082019050611b4c6000830184611b28565b92915050565b600081519050919050565b600082825260208201905092915050565b60005b83811015611b8c578082015181840152602081019050611b71565b60008484015250505050565b6000601f19601f8301169050919050565b6000611bb482611b52565b611bbe8185611b5d565b9350611bce818560208601611b6e565b611bd781611b98565b840191505092915050565b60006020820190508181036000830152611bfc8184611ba9565b905092915050565b6000819050919050565b611c1781611c04565b8114611c2257600080fd5b50565b600081359050611c3481611c0e565b92915050565b600060208284031215611c5057611c4f611a8d565b5b6000611c5e84828501611c25565b91505092915050565b600073ffffffffffffffffffffffffffffffffffffffff82169050919050565b6000611c9282611c67565b9050919050565b611ca281611c87565b82525050565b6000602082019050611cbd6000830184611c99565b92915050565b611ccc81611c87565b8114611cd757600080fd5b50565b600081359050611ce981611cc3565b92915050565b60008060408385031215611d0657611d05611a8d565b5b6000611d1485828601611cda565b9250506020611d2585828601611c25565b9150509250929050565b600080fd5b600080fd5b7f4e487b7100000000000000000000000000000000000000000000000000000000600052604160045260246000fd5b611d7182611b98565b810181811067ffffffffffffffff82111715611d9057611d8f611d39565b5b80604052505050565b6000611da3611a83565b9050611daf8282611d68565b919050565b600067ffffffffffffffff821115611dcf57611dce611d39565b5b611dd882611b98565b9050602081019050919050565b82818337600083830152505050565b6000611e07611e0284611db4565b611d99565b905082815260208101848484011115611e2357611e22611d34565b5b611e2e848285611de5565b509392505050565b600082601f830112611e4b57611e4a611d2f565b5b8135611e5b848260208601611df4565b91505092915050565b60008060408385031215611e7b57611e7a611a8d565b5b6000611e8985828601611cda565b925050602083013567ffffffffffffffff811115611eaa57611ea9611a92565b5b611eb685828601611e36565b9150509250929050565b600080600060608486031215611ed957611ed8611a8d565b5b6000611ee786828701611cda565b9350506020611ef886828701611cda565b9250506040611f0986828701611c25565b9150509250925092565b600060208284031215611f2957611f28611a8d565b5b6000611f3784828501611cda565b91505092915050565b611f4981611c04565b82525050565b6000602082019050611f646000830184611f40565b92915050565b611f7381611b1c565b8114611f7e57600080fd5b50565b600081359050611f9081611f6a565b92915050565b60008060408385031215611fad57611fac611a8d565b5b6000611fbb85828601611cda565b9250506020611fcc85828601611f81565b9150509250929050565b600067ffffffffffffffff821115611ff157611ff0611d39565b5b611ffa82611b98565b9050602081019050919050565b600061201a61201584611fd6565b611d99565b90508281526020810184848401111561203657612035611d34565b5b612041848285611de5565b509392505050565b600082601f83011261205e5761205d611d2f565b5b813561206e848260208601612007565b91505092915050565b6000806000806080858703121561209157612090611a8d565b5b600061209f87828801611cda565b94505060206120b087828801611cda565b93505060406120c187828801611c25565b925050606085013567ffffffffffffffff8111156120e2576120e1611a92565b5b6120ee87828801612049565b91505092959194509250565b6000806040838503121561211157612110611a8d565b5b600061211f85828601611cda565b925050602061213085828601611cda565b9150509250929050565b7f4e487b7100000000000000000000000000000000000000000000000000000000600052602260045260246000fd5b6000600282049050600182168061218157607f821691505b6020821081036121945761219361213a565b5b50919050565b7f4e487b7100000000000000000000000000000000000000000000000000000000600052601160045260246000fd5b60006121d482611c04565b91507fffffffffffffffffffffffffffffffffffffffffffffffffffffffffffffffff82036122065761220561219a565b5b600182019050919050565b60006060820190506122266000830186611c99565b6122336020830185611f40565b6122406040830184611c99565b949350505050565b600081905092915050565b600061225e82611b52565b6122688185612248565b9350612278818560208601611b6e565b80840191505092915050565b60006122908285612253565b915061229c8284612253565b91508190509392505050565b60008190508160005260206000209050919050565b60006020601f8301049050919050565b600082821b905092915050565b60006008830261230a7fffffffffffffffffffffffffffffffffffffffffffffffffffffffffffffffff826122cd565b61231486836122cd565b95508019841693508086168417925050509392505050565b6000819050919050565b600061235161234c61234784611c04565b61232c565b611c04565b9050919050565b6000819050919050565b61236b83612336565b61237f61237782612358565b8484546122da565b825550505050565b600090565b612394612387565b61239f818484612362565b505050565b5b818110156123c3576123b860008261238c565b6001810190506123a5565b5050565b601f821115612408576123d9816122a8565b6123e2846122bd565b810160208510156123f1578190505b6124056123fd856122bd565b8301826123a4565b50505b505050565b600082821c905092915050565b600061242b6000198460080261240d565b1980831691505092915050565b6000612444838361241a565b9150826002028217905092915050565b61245d82611b52565b67ffffffffffffffff81111561247657612475611d39565b5b6124808254612169565b61248b8282856123c7565b600060209050601f8311600181146124be57600084156124ac578287015190505b6124b68582612438565b86555061251e565b601f1984166124cc866122a8565b60005b828110156124f4578489015182556001820191506020850194506020810190506124cf565b86831015612511578489015161250d601f89168261241a565b8355505b6001600288020188555050505b505050505050565b600081519050919050565b600082825260208201905092915050565b600061254d82612526565b6125578185612531565b9350612567818560208601611b6e565b61257081611b98565b840191505092915050565b60006080820190506125906000830187611c99565b61259d6020830186611c99565b6125aa6040830185611f40565b81810360608301526125bc8184612542565b905095945050505050565b6000815190506125d681611ac3565b92915050565b6000602082840312156125f2576125f1611a8d565b5b6000612600848285016125c7565b91505092915050565b600060408201905061261e6000830185611c99565b61262b6020830184611f40565b9392505050565b7f4e487b7100000000000000000000000000000000000000000000000000000000600052601260045260246000fdfea2646970667358221220bb6fcc9d303cd71485a0b397f18eb2fb21236ca03d01461fbc356b2f4598d64c64736f6c634300081c0033",
  "linkReferences": {},
  "deployedLinkReferences": {}
}